:020000040800F2
:10000000980500209D0100083D100008730E0008AF
:10001000391000080D070008FD200008000000004E
:100020000000000000000000000000003116000881
:100030003D0C000800000000E51400084917000806
:10004000B7010008B7010008B7010008B7010008B0
:10005000B7010008B7010008B7010008B7010008A0
:10006000B7010008B7010008B7010008B701000890
:10007000B7010008B7010008B7010008B701000880
:10008000B7010008B7010008B7010008B701000870
:10009000B7010008B7010008B7010008B701000860
:1000A000B7010008B5170008B7010008B70100083C
:1000B0007D180008B7010008B7010008B701000863
:1000C000B7010008B7010008B7010008B701000830
:1000D000B7010008B91E0008B7010008451F000855
:1000E000B7010008B7010008B7010008B701000810
:1000F000B7010008B7010008B7010008B701000800
:10010000B7010008B7010008411A0008B70100084C
:10011000B7010008B7010008B7010008B7010008DF
:10012000B7010008B7010008B7010008B7010008CF
:10013000B7010008B7010008B7010008B7010008BF
:10014000B7010008B7010008B7010008B7010008AF
:10015000B7010008B7010008B7010008471F0008F1
:10016000B7010008B7010008B7010008B70100088F
:10017000B7010008B7010008B7010008B70100087F
:10018000B7010008B7010008DFF80CD000F058FAFA
:10019000004800472D2200089805002006488047A7
:1001A00006480047FEE7FEE7FEE7FEE7FEE7FEE75C
:1001B000FEE7FEE7FEE7FEE74D17000889010008AD
:1001C0002DE9FE4F804681EA0300C00F0C460090E7
:1001D00021F0004123F00045B8EB0200A94105D20F
:1001E0004046214690461C460B46024623F00040FE
:1001F000104347D0270DC7F30A00C3F30A510290FA
:10020000401A019040286BDAC3F3130040F4801BBE
:100210000098924620B10023D2EB030A63EB0B0B4C
:1002200001985946C0F14002504600F07BF906465D
:100230000D4650465946019A00F093F910EB08001C
:100240006141002487EA115284EAE7731A4340D0DF
:10025000009A62B3019A012A4FEA075215DC001B8B
:1002600061EB02014FF0004202EA0752CDE9004281
:10027000001C41F5801132462B4600F093F903B083
:10028000BDE8F08F40462146F9E7001B61EB020113
:10029000001C41F5801300185B412018A2F50017DF
:1002A00047EB030140EAD570B6196D4111E06D08C6
:1002B0004FEA360645EAC0754FEA0752001B61EB6C
:1002C0000201001C41F5801149084FEA3000001975
:1002D000514132462B4603B0BDE8F04F00F053B910
:1002E0000098012240000023D0EB020263EBE07390
:1002F000009821464FEAE074B8EB000061EB04017E
:10030000E9E783F000435BE781F0004158E72DE91E
:10031000FE4F81EA030404F0004421F00041009400
:100320004FF0000B23F0004350EA01045ED052EA84
:1003300003045BD0C3F30A54C1F30A552C44A4F25E
:10034000F3340194A0FB0254C1F3130141F4801172
:10035000C3F3130343F4801301FB024400FB034E79
:10036000840A970A44EA815447EA8357A4FB076842
:1003700002958D0A05FB07854FEA932C04FB0C546C
:100380002705029D4FEA065847EA1637B5EB0805E0
:100390006EEB070C870E920E47EA811742EA831232
:1003A000A7FB0201B6EB0B0164EB00042B0D43EA43
:1003B0000C335E1844EB1C50DA465146E7FB020151
:1003C000C5F313044FEA0B3343EA14534FEA0432E4
:1003D000019C43EA0603A4F10C040294009CCDE9BD
:1003E00000B400F0DFF803B0BDE8F08F0020014654
:1003F000F9E72DE9F04D81EA030404F0004B21F008
:10040000004514464FF0000A23F0004150EA05026F
:1004100020D054EA01021DD0C5F30A570246C5F3A5
:100420001303C1F31300C1F30A5640F4801543F4DB
:100430008013A7EB0608101BD64608F2FD3873EBB5
:10044000050002D308F1010801E092185B41B8F100
:10045000000F03DA00200146BDE8F08D00204FF4C4
:100460008011064684460EE0171B73EB050705D383
:10047000121B63EB050306434CEA010C49084FEAE3
:10048000300092185B4150EA0107EDD152EA0300B7
:1004900012D082EA040083EA0501084305D0101B4C
:1004A000AB4106D20122002306E000224FF00043B8
:1004B00002E06FF0010253101AEB06004CEB0851FA
:1004C00010EB0A0041EB0B01BDE8F04D00F05BB80A
:1004D0000EB5C10F80EAE0700844CA07002140F25F
:1004E00033438DE80E000A460B4600F05BF803B07C
:1004F00000BDC1F30A5210B5C1F3130140F2FF333E
:1005000041F480119A4201DA002010BD40F23343D9
:100510009A42A2F2334203DC524200F012F810BDBC
:10052000904010BD202A04DB203A00FA02F100209E
:1005300070479140C2F1200320FA03F31943904021
:100540007047202A04DB203A21FA02F0002170478C
:1005500021FA02F3D040C2F120029140084319462B
:100560007047202A06DBCB17203A41FA02F043EA13
:10057000E07306E041FA02F3D040C2F1200291405C
:1005800008431946704710B5141E73F1000408DAC9
:10059000401C41F1000192185B411A4301D120F047
:1005A000010010BD2DE9F04D92469B4611B1B1FA04
:1005B00081F202E0B0FA80F220329046FFF7B2FFFB
:1005C00004460F4640EA0A0041EA0B0153465A46E8
:1005D000084313D0114653EA010019D0C8F1400274
:1005E0005046FFF7AEFF05460E4650465946424676
:1005F000FFF798FF084305D0012004E02046394664
:10060000BDE8F08D0020054346EAE0762C433743F1
:100610000A986305E40AA0EB08000022FD0A44EAF8
:1006200047540A3002D500200146E9E701051019B8
:100630006941DDE9084500196941BDE8F04DA2E7CF
:10064000064C074D06E0E06840F0010394E807001F
:1006500098471034AC42F6D3FFF79AFD602F00089C
:10066000802F000870B58C1810F8015B15F0070397
:1006700001D110F8013B2A1106D110F8012B03E03B
:1006800010F8016B01F8016B5B1EF9D12B0705D443
:100690000023521E0DD401F8013BFAE710F8013B8C
:1006A000CB1A921C03E013F8015B01F8015B521EA8
:1006B000F9D5A142D8D3002070BD000070B5044622
:1006C0000D460A20B4FBF0F1A5F11E0000EB8000FE
:1006D00001EB4000401E0C4931F81060314600200B
:1006E00000F034FA0A20B4FBF0F1A5F11E0000EB93
:1006F000800001EB4000401E034931F81060314694
:10070000002000F033FA70BD0000002000BFFEE7BB
:1007100039B1084A1268012383401A43054B1A6015
:1007200006E0044A1268012383409A43014B1A6091
:10073000704700000074004030B5002200230A4CCE
:10074000226840F6FE748440A243D1E900452C4360
:100750008D682C43CD6844EA050303FA00F4224374
:10076000014C226030BD00000074004070B52DEDDA
:100770000A8B04460E2C2CDA2046FFF7A9FE41EC2A
:100780001C0B9FED680B53EC102BFFF7C0FD41ECE9
:100790001B0B9FED660B53EC102BFFF711FD41EC8B
:1007A0001A0B9FED640B53EC102BFFF7B0FD41ECDF
:1007B000190B9FED620B53EC102BFFF71AFE41EC67
:1007C000180BFFF796FE85B22946002000F0BEF90F
:1007D000A5E00F2C11DB172C0FDC162104FB01F018
:1007E0008530C0EB003040F6D74190FBF1F085B288
:1007F0002946002000F0AAF991E0182C2EDB1D2CD0
:100800002CDC2046FFF764FE41EC1C0B9FED4D0BEA
:1008100053EC102BFFF77BFD41EC1B0B9FED430BC3
:1008200053EC102BFFF7CCFC41EC1A0B9FED410B66
:1008300053EC102BFFF76BFD41EC190B9FED3F0BB9
:1008400053EC102BFFF7D5FD41EC180BFFF751FED1
:1008500085B22946002000F079F960E01E2C2EDBDD
:10086000222C2CDC2046FFF733FE41EC1C0B9FEDC5
:10087000370B53EC102BFFF74AFD41EC1B0B9FEDA0
:100880002B0B53EC102BFFF79BFC41EC1A0B9FED4D
:10089000290B53EC102BFFF73AFD41EC190B9FEDA0
:1008A000270B53EC102BFFF7A4FD41EC180BFFF7BF
:1008B00020FE85B22946002000F048F92FE0232CC5
:1008C0002DDB282C2BDC2046FFF702FE41EC1C0B15
:1008D0009FED200B53EC102BFFF719FD41EC180B8B
:1008E0009FED120B53EC102BFFF76AFC41EC1B0B36
:1008F0009FED100B53EC102BFFF709FD41EC1A0B89
:100900009FED0E0B53EC102BFFF773FD41EC190B11
:10091000FFF7EFFD85B22946002000F017F9BDEC86
:100920000A8B70BD0000000000803640000000000F
:1009300000A060400000000000FEAF40000000008A
:1009400000AEA940CDCCCCCCCCCC354000000000D2
:1009500000803540666666666666354070B52DED8A
:100960000A8B04460E2C2CDA2046FFF7B1FD41EC31
:100970001C0B9FED680B53EC102BFFF7C8FC41ECF0
:100980001B0B9FED660B53EC102BFFF719FC41EC92
:100990001A0B9FED640B53EC102BFFF7B8FC41ECE6
:1009A000190B9FED620B53EC102BFFF722FD41EC6E
:1009B000180BFFF79EFD85B22946002000F0D6F8FF
:1009C000A5E00F2C11DB172C0FDC162104FB01F026
:1009D0008530C0EB003040F6D74190FBF1F085B296
:1009E0002946002000F0C2F891E0182C2EDB1D2CC7
:1009F0002CDC2046FFF76CFD41EC1C0B9FED4D0BF2
:100A000053EC102BFFF783FC41EC1B0B9FED430BCA
:100A100053EC102BFFF7D4FB41EC1A0B9FED410B6D
:100A200053EC102BFFF773FC41EC190B9FED3F0BC0
:100A300053EC102BFFF7DDFC41EC180BFFF759FDD1
:100A400085B22946002000F091F860E01E2C2EDBD4
:100A5000222C2CDC2046FFF73BFD41EC1C0B9FEDCC
:100A6000370B53EC102BFFF752FC41EC1B0B9FEDA7
:100A70002B0B53EC102BFFF7A3FB41EC1A0B9FED54
:100A8000290B53EC102BFFF742FC41EC190B9FEDA7
:100A9000270B53EC102BFFF7ACFC41EC180BFFF7C6
:100AA00028FD85B22946002000F060F82FE0232CB5
:100AB0002DDB282C2BDC2046FFF70AFD41EC1C0B1C
:100AC0009FED200B53EC102BFFF721FC41EC180B92
:100AD0009FED120B53EC102BFFF772FB41EC1B0B3D
:100AE0009FED100B53EC102BFFF711FC41EC1A0B90
:100AF0009FED0E0B53EC102BFFF77BFC41EC190B19
:100B0000FFF7F7FC85B22946002000F02FF8BDEC76
:100B10000A8B70BD0000000000803640000000001D
:100B200000A060400000000000FEAF400000000098
:100B300000AEA940CDCCCCCCCCCC354000000000E0
:100B400000803540666666666666354008B50022F8
:100B50000092054A009200F10802009B1A4400929C
:100B6000009A116008BD00000074004008B5002222
:100B70000092054A009200F11402009B1A44009270
:100B8000009A116008BD00000074004000B587B0F5
:100B90000121084600F0A8FC0121480700F0B4FC40
:100BA0001020059003208DF8180002208DF81B00FE
:100BB00005A90B4800F0C0F80020019002900390B6
:100BC000049001A9FFF7B8FD01210020FFF7A0FD67
:100BD0004FF448710020FFF7B9FF07B000BD0000D7
:100BE0000000024000B587B00121084600F07CFCFF
:100BF0000121480700F088FC2020059003208DF893
:100C0000180002208DF81B0005A90B4800F094F88D
:100C10000020019002900390049001A91020FFF79A
:100C20008BFD01211020FFF773FD4FF44871002068
:100C3000FFF79CFF07B000BD0000024070470000B6
:100C40001CB50121022000F04FFC4FF43040009011
:100C500001208DF8040000208DF8060003208DF897
:100C6000050001208DF807006946304800F064F85F
:100C70004FF430412D4800F0D3F84FF480400090FD
:100C800000208DF8040003208DF8050002208DF867
:100C900007006946254800F04FF80121042000F0C4
:100CA00023FC4FF4A050009001208DF80400002098
:100CB0008DF8060003208DF8050001208DF807004F
:100CC00069461B4800F038F84FF4A051184800F06E
:100CD000A7F84FF40060009000208DF80400032076
:100CE0008DF8050002208DF807006946104800F0D5
:100CF00023F80121084600F0F7FB4FF40040009074
:100D000001208DF8040000208DF8060003208DF8E6
:100D1000050001208DF807006946064800F00CF830
:100D20004FF40041034800F07BF81CBD0004024072
:100D30000008024000000240F0B50A4600210023EE
:100D4000002400BF3DE0012505FA01F3156805EA1E
:100D500003049C4234D105684F000326BE40B543CE
:100D6000056015794E00B540066835430560157974
:100D7000012D02D01579022D16D185684F0003266A
:100D8000BE40B543856055794E00B5408668354311
:100D90008560456801268E40B54345604568967973
:100DA0008E40B6B235434560C5684F000326BE404D
:100DB000B543C560D5794E00B540C6683543C560BA
:100DC000491C1029BFD3F0BDF0B5002300244D0706
:100DD000ED0E02FA05F3CE1000F1200555F826506D
:100DE0004E07F70E0F26BE40B543CF1000F1200688
:100DF00046F82750CE1000F1200555F8265045EA58
:100E00000304CE1000F1200545F82640F0BD02464F
:100E1000002013690B400BB1012000E00020704757
:100E2000418370470183704770B5044600250FE089
:100E30005CB12146084801F05EF900BF80210648F8
:100E400001F08EF80028F9D000E070BD681CC5B232
:100E5000032DEDDB00BFF8E70010014010B5C820FE
:100E600001F07CF9FF20FFF7DFFFC82001F076F9E1
:100E700010BD00BFFEE700001CB50121102000F0EE
:100E800033FB7C20009000208DF8040003208DF8B7
:100E9000050001208DF8070069460C48FFF74CFF5C
:100EA0000121042000F020FB4FF4005000900020AE
:100EB0008DF8040003208DF8050001208DF807004F
:100EC00069460348FFF738FF1CBD000000100240D0
:100ED0000008024010B5044614B101203F490870D3
:100EE0003E480078002850D008213D48FFF78FFF8A
:100EF000C8B120213A48FFF78AFFA0B14FF4005152
:100F00003848FFF784FF70B140213548FFF77FFF75
:100F100048B110213248FFF77AFF20B10421304850
:100F2000FFF775FF80BB0A2001F018F900202B495C
:100F3000087008212A48FFF76AFF08B9012010BD90
:100F400020212748FFF763FF08B90220F7E74FF495
:100F500000512448FFF75BFF08B90320EFE7402169
:100F60001F48FFF754FF08B90420E8E710211C4888
:100F7000FFF74DFF08B90520E1E704211848FFF706
:100F800046FF40BB0620DAE7FFE708211448FFF7D9
:100F90003EFF01281FD120211148FFF738FF01280B
:100FA00019D141030F48FFF732FF012813D1402127
:100FB0000B48FFF72CFF01280DD110210848FFF73F
:100FC00026FF012807D104210548FFF720FF01284B
:100FD00001D1024908700020B1E700004C01002057
:100FE00000100240000802401CB50121042000F05E
:100FF0007BFA0720009001208DF8040000208DF876
:10100000060003208DF8050001208DF807006946D1
:101010000648FFF791FE0120054908600549C1F81F
:1010200084020349083108601CBD0000000802402A
:10103000800241420000414200BFFEE770470000CD
:1010400070B5002100230F22C4781CB3174C24680C
:1010500004F4E064C4F5E064C4F30721C1F10404BE
:10106000E3B20A4144789C40E1B2847814402143C1
:101070000C07210E0E4C05786155047804F01F050D
:101080000124AC4005786D11AD0005F1E025C5F8EF
:10109000004109E0047804F01F050124AC40054D2F
:1010A0000678761145F8264070BD00000CED00E092
:1010B00000E400E080E100E070B5002418E004F1F5
:1010C000B000002100F09CF90021084600F098F9DA
:1010D0000021102000F094F9002505E001210020F6
:1010E00000F08EF9681CC5B2802DF7DB601CC4B21D
:1010F000082CE4DB70BD000010B540210D48FFF75F
:1011000091FE042001F046F880210A48FFF78AFE8C
:10111000042001F03FF880210648FFF781FE0420FB
:1011200001F038F840210348FFF77AFE042001F06F
:1011300031F810BD0004024010B540210A48FFF705
:1011400071FE042001F026F880210748FFF768FEB1
:10115000042001F01FF880210348FFF763FE0420FC
:1011600001F018F810BD00000004024010B5402145
:101170000648FFF757FE042001F00CF84021034811
:10118000FFF74EFE042001F005F810BD00040240F8
:101190001CB50121022000F0A7F9C0200090012019
:1011A0008DF8040000208DF8060001208DF807005E
:1011B00002208DF8050069463B48FFF7BDFDC021C0
:1011C0003948FFF72FFE4FF4487000F0C7FF0021A9
:1011D000AE2000F015F90021084600F011F90021B9
:1011E000102000F00DF90021402000F009F9002145
:1011F000B02000F005F90021812000F001F9002164
:10120000FF2000F0FDF80021A12000F0F9F80021F6
:10121000A62000F0F5F80021A82000F0F1F8002148
:101220003F2000F0EDF80021C82000F0E9F800218F
:10123000D32000F0E5F80021084600F0E1F8002195
:10124000D52000F0DDF80021802000F0D9F8002141
:10125000D82000F0D5F80021052000F0D1F80021B9
:10126000D92000F0CDF80021F12000F0C9F80021CC
:10127000DA2000F0C5F80021122000F0C1F80021AA
:10128000DB2000F0BDF80021302000F0B9F800218B
:101290008D2000F0B5F80021142000F0B1F80021F5
:1012A000AF2000F0ADF81CBD0004024070B504464C
:1012B0000D4605F1B000002100F0A2F8102141EA2E
:1012C0001410002100F09CF804F00F00002100F041
:1012D00097F870BD2DE9F04707460E4690469946AF
:1012E00000250024A8F12000C5B27F2F02DD0027D1
:1012F000B01CC6B2B9F1100F24D131463846FFF701
:10130000D5FF002408E004EB0511194A505C0121C7
:1013100000F076F8601CC4B2082CF4DB701CC1B27B
:101320003846FFF7C3FF002409E004EB051108313C
:101330000F4A505C012100F063F8601CC4B2082C15
:10134000F3DB12E031463846FFF7B0FF00240AE035
:1013500005EB4501074A02EB4101085D012100F060
:101360004FF8601CC4B2062CF2DBBDE8F087000029
:1013700070290008482700082DE9FF5F07469146BD
:101380001E460E9D4FF0000A002435E0301B401E23
:10139000C1B20A2001F072F8B9FBF0F00A21B0FBEB
:1013A000F1F201FB1208BAF1000F14D1701EA04235
:1013B00011DDB8F1000F0CD1AB4605EBDB71491024
:1013C00001FB0471C8B22B4620220199FFF782FF6E
:1013D00010E04FF0010AAB4605EBDB71491001FB51
:1013E0000471C8B208F13001CAB22B460199FFF767
:1013F00071FF00BF601CC4B2B442C7DBBDE8FF9FF1
:1014000070B504460D461DB1E0B200F055F802E09B
:10141000E0B200F03BF870BD2DE9F04105462C46E6
:1014200040211948FFF7FCFC042000F0B3FE002621
:1014300025E0274607F08007802F07D1802112483A
:10144000FFF7F0FC042000F0A5FE06E080210E4826
:10145000FFF7E6FC042000F09DFE6006040E40212C
:101460000948FFF7DFFC042000F094FE4021064805
:10147000FFF7D6FC042000F08DFE701CC6B2082ECB
:10148000D7DBBDE8F08100000004024010B504463F
:10149000FFF732FE7820FFF7BFFFFFF767FE00205F
:1014A000FFF7BAFFFFF762FE2046FFF7B5FFFFF731
:1014B0005DFEFFF741FE10BD10B50446FFF71CFEB0
:1014C0007820FFF7A9FFFFF751FE4020FFF7A4FFA8
:1014D000FFF74CFE2046FFF79FFFFFF747FEFFF7A1
:1014E0002BFE10BD7047000029B1064A1268024366
:1014F000044B1A6004E0034A12688243014B1A60ED
:10150000704700003038024029B1064A1268024391
:10151000044B1A6004E0034A12688243014B1A60CC
:10152000704700004038024029B1064A1268024361
:10153000044B1A6004E0034A12688243014B1A60AC
:101540007047000044380240F0B50021002200241A
:10155000022500260223324F3F6807F00C0121B11B
:10156000042905D0082937D105E02E4F076036E061
:101570002D4F076033E02A4F3F1F3F68C7F3805667
:10158000274F3F1F3F6807F03F036EB1264FB7FB61
:10159000F3F7DFF88CC0ACF1040CDCF800C0CCF33E
:1015A000881C07FB0CF40CE01E4FB7FBF3F7DFF8C9
:1015B00070C0ACF1040CDCF800C0CCF3881C07FB55
:1015C0000CF4174F3F1F3F68C7F301477F1C7D0096
:1015D000B4FBF5F7076002E0124F076000BF00BFE1
:1015E0000F4F3F6807F0F0010909104F7A5C076858
:1015F000D74047600A4F3F6807F4E051890A0B4F14
:101600007A5C4768D7408760054F3F6807F46041C0
:10161000490B064F7A5C4768D740C760F0BD0000B1
:10162000083802400024F40000127A00080100206B
:10163000704700000CB5002001900090344800680D
:1016400040F480303249086000BF3148006800F43F
:10165000003000900198401C0190009818B9019842
:10166000B0F5A04FF1D12A48006800F4003010B165
:101670000120009001E0002000900098012846D150
:1016800023484030006840F08050214940310860D4
:101690002048006840F440401E4908601C4808305B
:1016A00000681B49083108600846006840F40040A3
:1016B00008600846006840F4A05008601648091FFA
:1016C0000860081F006840F08070091F086000BFB4
:1016D0000F48006800F000700028F9D040F2057053
:1016E0000E4908600A480830006820F003000849E5
:1016F000083108600846006840F00200086000BF3A
:1017000003480830006800F00C000828F8D10CBD30
:10171000003802400070004008544007003C02407E
:10172000042808D14FF0E021096941F004014FF08D
:10173000E022116107E04FF0E021096921F0040186
:101740004FF0E022116170477047000010B5154856
:10175000006840F47000134908601348006840F0C6
:1017600001001149086000200F49083108600E4847
:1017700000680E4908400C4908600D48091D0860C2
:10178000081F006820F48020091F08600020064917
:101790000C310860FFF74EFF4FF0006001498039BF
:1017A000086010BD88ED00E000380240FFFFF6FE43
:1017B0001030002410B52E48007800F0800000287A
:1017C00050D101212B4800F05CFAD0B128480078B4
:1017D00000F04000A8B12648007800F03F003F2804
:1017E0000AD12348007840F08000214908704FF06A
:1017F000FF302149086004E01D480078401C1C4966
:10180000087002211B4800F03CFA58B318480078D1
:1018100000F0400078B11648007840F0800014498C
:101820000870144800F02AFA134908600021114892
:1018300000F080FA16E000200D4908700E4908609B
:101840000B48007840F04000094908700021094821
:1018500000F0F9F90021074800F0EAFA01210548F3
:1018600000F0F1F90321034800F0EAF910BD00008F
:101870003C010020004401404001002010B501213E
:10188000880700F0FEF9002878D002213C48FFF7D5
:10189000BEFA20B93B480068401C3A4908603A4803
:1018A0000078012856D102213548FFF7B0FA3749B0
:1018B0000A780978491C354B1970354988541846FF
:1018C0000078102846D100202F490870194608706A
:1018D0002C4908602E480078C0002D49497800EB5B
:1018E00081002B49897800EB41002949C9780844D7
:1018F0002849087026480079C0002549497900EB3D
:1019000081002349897900EB41002149C9790844C4
:10191000214908701E48007AC0001D49497A00EB31
:1019200081001B49897A00EB41001949C97A0844B2
:101930001A4908701648007BC0001549497B00EB26
:1019400081001349897B00EB41001149C97B0844A0
:101950001349087002210A48FFF759FA012809D1F2
:1019600008480068082805DD0020064908600120B5
:10197000054908700121880700F062F910BD0000D8
:1019800000100240440100202C0100202D01002005
:10199000740100202E0100202F01002030010020C2
:1019A0003101002030B587B005460C4601210846BC
:1019B000FFF7AAFD01211020FFF796FD02200590F8
:1019C00000208DF8180003208DF8190001208DF8F3
:1019D0001B0005A91948FFF7AFF9681E0390601EA8
:1019E00080B2ADF808000020ADF81000ADF80A0094
:1019F00002A94FF0804000F01DFA1C208DF8040071
:101A000002208DF8050001208DF806008DF80700F2
:101A100001A8FFF715FB01221146900700F042F9DB
:101A20000121880700F00CF92021480600F0F3F9A5
:101A30000121880700F007F907B030BD001002400F
:101A400010B50121164800F01CF920B315480068B4
:101A500000F0004028B14FF480711348FFF7E2F91D
:101A600004E04FF480711048FFF7DAF90D48006880
:101A700040000C4908600D480068401C0B49086094
:101A800008460068202806D1094800680549086012
:101A90000020064908600121014800F0D1F810BD7E
:101AA000000C0040340100200010024048010020DA
:101AB0003801002030B587B005460C4601210820CA
:101AC000FFF722FD01211020FFF70EFD4FF480707B
:101AD000059001208DF8180003208DF819000020D2
:101AE0008DF81A0001208DF81B0005A91948FFF791
:101AF00023F9681E0390601E80B2ADF80800002034
:101B0000ADF81000ADF80A0002A9134800F092F9F0
:101B100032208DF8040002208DF8050000208DF899
:101B2000060001208DF8070001A8FFF789FA0122BD
:101B30001146094800F0B6F80121074800F080F886
:101B40002021054800F067F90121034800F07BF8E7
:101B500007B030BD00100240000C004030B58BB023
:101B600005460C4601210804FFF7DEFC012108466A
:101B7000FFF7BAFC032202212948FFF725F90322C7
:101B800011462748FFF720F90C20099002208DF814
:101B9000280000208DF82A0001208DF82B0003205A
:101BA0008DF8290009A91E48FFF7C6F80795ADF87A
:101BB00018400020ADF82000ADF81A0006A9194819
:101BC00000F038F96020ADF804000120ADF80600FF
:101BD0000020ADF81000ADF81600ADF80800ADF823
:101BE0001200039001A90F4800F066F801A90D4802
:101BF00000F0B2F808210B4800F0A5F808210948C8
:101C000000F0FCF80121074800F00EF8012105481A
:101C100000F025F80121034800F015F80BB030BDA5
:101C2000000002400040014021B1028842F08002E1
:101C3000028004E002884FF67F731A4002807047EA
:101C4000CA430282704721B1028842F00102028039
:101C500004E002884FF6FE731A400280704731B1EB
:101C6000B0F8442042F40042A0F8442005E0B0F867
:101C70004420C2F30E02A0F8442070470146486B8E
:101C8000704730B50246002000230024158A05EA7B
:101C90000103958905EA010413B10CB1012000E0AC
:101CA000002030BD1AB183890B43838102E0838910
:101CB0008B4383817047000070B50024002200230D
:101CC000058C4FF6FE7635400584028C8388048BA4
:101CD0004FF68F752C40B51E2C400D882C43751E79
:101CE0002A408D892A434D882A43104DA84202D0AC
:101CF0000F4DA84213D14FF6F7752A40CD892A43DC
:101D00004FF6FB752A408D882A434FF6FF652B401E
:101D10004FF6FF552B400D8A2B434D8A2B43838072
:101D200004838D684563028470BD0000000001409B
:101D3000000401400A460021018C4FF6FD73194052
:101D40001143018470470A460021018B4FF6F77357
:101D5000194011430183704770B50024002200230D
:101D6000058C4FF6EF7635400584028C8388048B12
:101D700048F6FF752C404FF6FF452C400D884FF676
:101D8000FF7606EA05252C434FF6DF752A408D893C
:101D900006EA05152A434D8806EA05152A43154D1E
:101DA000A84202D0144DA8421DD14FF67F752A409B
:101DB000CD894FF6FF7606EA05152A434FF6BF7523
:101DC0002A408D8806EA05152A434FF6FF352B4039
:101DD0004FF2FF752B400D8A06EA85052B434D8A8D
:101DE00006EA85052B43838004838D68856302841E
:101DF00070BD000000000140000401400A460021BF
:101E0000018B4FF2FF7319404FF6FF7303EA022371
:101E100019430183704782884FF68F731A4082807E
:101E200082880A43828070474163704781637047AC
:101E30004162704700220288184B98420ED0184B1E
:101E400098420BD0B0F1804F08D0164B984205D085
:101E5000154B984202D0154B984204D14FF68F7320
:101E60001A404B881A43124B984207D0114B9842A4
:101E700004D04FF6FF431A400B891A4302804B6887
:101E8000C3620B880385054B984202D0044B9842ED
:101E900001D18B7A038601238382704700000140C1
:101EA000000401400004004000080040000C004015
:101EB000001000400014004010B540F225511E48AB
:101EC00000F05BF820B31C4800F010F9C4B21B48C6
:101ED000008800F40040D8B91848008800F4804019
:101EE00070B10A2C03D000201449088022E0134866
:101EF000008840F40040114908800020088019E063
:101F00000D2C06D10D48008840F480400B49088014
:101F100010E00A480088C0F30D0009490C54074836
:101F20000088401C05490880084600880B2801DD10
:101F30000020088010BD0000001001402401002096
:101F4000500100207047704721B1828942F400524D
:101F5000828104E082894DF6FF731A4082817047C6
:101F600002460020B1F5007F00D100BF13880B406E
:101F70000BB1012000E00020704770B5024600243C
:101F800000230025002040F66A16B14200D100BFB0
:101F9000C1F3421501F01F03012606FA03F3012DD8
:101FA00002D19689334006E0022D02D1168A3340D1
:101FB00001E0968A33400C12012606FA04F41688D2
:101FC000344013B10CB1012000E0002070BDF0B529
:101FD0000346002400260025002040F66A17B94277
:101FE00000D100BF1846C1F3421401F01F060127BB
:101FF00007FA06F5012C01D10C3004E0022C01D1C6
:10200000103000E014301AB107682F43076002E077
:102010000768AF430760F0BD2DE9FF4705460E4650
:102020000024A14600BFA046B08900B100BF2C8AA1
:1020300024F44054F08804432C82AC8941F20C60B3
:102040008443B08831890843718908430443AC81D3
:10205000AC8A24F44074B0890443AC826846FFF72C
:1020600073FA2048854202D01F48854202D1DDF82C
:102070000C9001E0DDF80890A88900F4004040B120
:1020800009EBC90000EB091031684900B0FBF1F71A
:1020900007E009EBC90000EB091031688900B0FBCB
:1020A000F1F76420B7FBF0F004012009642101FB83
:1020B0001078A88900F4004040B1322000EBC8003D
:1020C000B0FBF1F000F00700044308E0322000EB21
:1020D00008106421B0FBF1F000F00F0004432C81E4
:1020E000BDE8FF87001001400014014001468888C8
:1020F000C0F308007047CAB28280704700BFFEE795
:1021000002E008C8121F08C1002AFAD170477047C0
:10211000002001E001C1121F002AFBD1704700001E
:1021200010B504466FF00400FFF7FAFAE11704EB6C
:102130005171C1F3C701074A11701046007800EBD6
:102140004001C1EBC0104FF6FF7101EAC000024927
:10215000088010BD180100201A01002070B5044647
:102160004FF4077094FBF0F0C6B24FF4077094FB85
:10217000F0F100FB114085B205E04FF4077000F06C
:102180002FF8701EC6B2002EF7D115B1284600F008
:1021900027F870BD0146114A12784A434FF0E023F8
:1021A0005A6100229A611A46126942F001021A61CC
:1021B00000BF4FF0E022106900F001021AB100F4F4
:1021C0008032002AF5D04FF0E022126922F001029D
:1021D0004FF0E0231A6100229A6170471801002035
:1021E0000146114A12884A434FF0E0235A61002207
:1021F0009A611A46126942F001021A6100BF4FF05B
:10220000E022106900F001021AB100F48032002AC5
:10221000F5D04FF0E022126922F001024FF0E023E6
:102220001A6100229A6170471A0100208AB00126C3
:1022300000BF40F2B22741F64C5009904FF4167996
:10224000F51E00BFCA46CB4600BF00BF00BF00BF9F
:1022500000BF00BF00BF00BFFF200290A820FFF713
:102260005FFFFEF7C1FEFEF707FEFEF791FFFEF7E8
:1022700023FF542144F62060FFF71CFC542144F650
:102280002060FFF78FFB482144F62060FFF766FCD3
:10229000FEF7D6FCFEF77AFCFEF7A4FC4FF41650CE
:1022A00000F050F94FF4165000F0A2F94FF4165018
:1022B00000F0F4F9FEF7D2FD2846FEF757FA28465B
:1022C000FEF74CFB49466A48FFF7AEFD49466848B1
:1022D000FFF7ACFDCBE00020FEF7FCFD029002987A
:1022E000072849D2DFE800F04804172C2D2E3B00C8
:1022F000A819282807DA35442846FEF737FA284671
:10230000FEF72CFB06E028252846FEF72FFA284684
:10231000FEF724FB33E0A81B10F1020F07DBAD1B17
:102320002846FEF723FA2846FEF718FB07E06FF071
:1023300001052846FEF71AFA2846FEF70FFB1EE0B5
:102340001DE01CE00AEB07010998814201DCBA4458
:1023500000E0CA4651464648FFF766FD0FE00BEB2A
:1023600007010998814201DCBB4400E0CB46594695
:102370003F48FFF75BFD02E0FF20029000BF00BF77
:102380003C488079532872D100203B490860394885
:102390000078079037484078049036488078069057
:1023A0003448C0780390334800790590314840792B
:1023B00008903048C47824020078044424022D4850
:1023C0000079044424022B484078044424F07044EB
:1023D000204600F05FF8204600F088F8DDE907109D
:1023E000FEF76CF90C200223009000210846079AA2
:1023F000FEF7C2FF0C200090089800EB800042001E
:10240000032300211820FEF7B7FF0C2002230090C1
:1024100000213020039AFEF7AFFF0C200323009029
:102420000A210020049AFEF7A7FF0C200323009046
:102430000A211820059AFEF79FFF0C200223009026
:102440000A213020069AFEF797FF4FF0000805E0BA
:102450000020084901F8080008F10108B8F10C0F44
:10246000F6DBC820FFF77AFE01200349086032E757
:1024700000400140500100208002414210B5024658
:10248000012000E050430B00A1F10104E1B2F9D1B9
:1024900010BD000070B504460020114908600320FB
:1024A000FFF778FE002511E000200E490860E00FDC
:1024B0000D49C1F8B00264000320FFF76BFE012054
:1024C000084908600320FFF765FE6D1C202DEBD343
:1024D0000320FFF75FFE01200149086070BD000086
:1024E000BC024042A80241420000414270B504468D
:1024F0000020124908600320FFF74CFE002513E07E
:1025000000200E49091D0860E00F0D49C1F8BC020A
:1025100064000320FFF73EFE01200849091D086002
:102520000320FFF737FE6D1C202DE9D30320FFF7B2
:1025300031FE01200149086070BD0000B0824042B8
:102540000080404210B588B0044601210846FEF7DD
:10255000CBFF01211020FEF7E7FF072209212248C7
:10256000FEF732FC07220A211F48FEF72DFC4FF42C
:10257000C060069002208DF81C008DF81D00002020
:102580008DF81E0001208DF81F0006A91648FEF7E1
:10259000D3FB02940020ADF80C00ADF80E00ADF8AE
:1025A0001000ADF814000C20ADF8120002A90F487D
:1025B000FFF732FD01210D48FFF7C6FC012240F272
:1025C00025510A48FFF703FD25208DF8040002205D
:1025D0008DF805008DF8060001208DF8070001A890
:1025E000FEF72EFD08B010BD0000024000100140B3
:1025F00010B588B0044601210820FEF775FF0121BF
:102600008804FEF781FF072209212248FEF7DCFB40
:10261000072208211F48FEF7D7FB4FF440700690B1
:1026200002208DF81C008DF81D0000208DF81E0082
:1026300001208DF81F0006A91648FEF77DFB0294C5
:102640000020ADF80C00ADF80E00ADF81000ADF8AC
:1026500014000C20ADF8120002A90F48FFF7DCFCB3
:1026600001210D48FFF770FC012240F225510A4874
:10267000FFF7ADFC27208DF8040003208DF805003E
:102680008DF8060001208DF8070001A8FEF7D8FCA0
:1026900008B010BD000C02400048004010B588B0E2
:1026A000044601210420FEF71FFF01212020FEF730
:1026B0003BFF082206212248FEF786FB082207215D
:1026C0001F48FEF781FBC020069002208DF81C00F9
:1026D0008DF81D0000208DF81E0001208DF81F00D0
:1026E00006A91748FEF728FB02940020ADF80C005D
:1026F000ADF80E00ADF81000ADF814000C20ADF8E8
:10270000120002A90F48FFF787FC01210D48FFF7CF
:102710001BFC012240F225510A48FFF758FC4720D4
:102720008DF8040004208DF805008DF806000120C6
:102730008DF8070001A8FEF783FC08B010BD00006B
:1027400000080240001401400000000000000000EA
:10275000002F000000000700070000147F147F1402
:1027600000242A7F2A120062640813230036495588
:10277000225000000503000000001C224100000060
:1027800041221C000014083E08140008083E0808F6
:10279000000000A060000008080808080000606051
:1027A0000000002010080402003E5149453E000090
:1027B000427F4000004261514946002141454B3172
:1027C000001814127F10002745454539003C4A493E
:1027D00049300001710905030036494949360006B0
:1027E0004949291E00003636000000005636000018
:1027F0000008142241000014141414140000412293
:10280000140800020151090600324959513E007C6A
:102810001211127C007F49494936003E4141412254
:10282000007F4141221C007F49494941007F09093D
:102830000901003E4149497A007F0808087F0000ED
:10284000417F4100002040413F01007F08142241A8
:10285000007F40404040007F020C027F007F040860
:10286000107F003E4141413E007F09090906003EBC
:102870004151215E007F09192946004649494931E5
:102880000001017F0101003F4040403F001F204008
:10289000201F003F4038403F0063140814630007C6
:1028A0000870080700615149454300007F4141001D
:1028B00000552A552A55000041417F0000040201BD
:1028C000020400404040404000000102040000209B
:1028D00054545478007F48444438003844444420D9
:1028E00000384444487F00385454541800087E0986
:1028F00001020018A4A4A47C007F0804047800004E
:10290000447D4000004080847D00007F102844000A
:102910000000417F4000007C04180478007C08041B
:10292000047800384444443800FC24242418001857
:10293000242418FC007C0804040800485454542043
:1029400000043F444020003C4040207C001C2040CC
:10295000201C003C4030403C004428102844001C0F
:10296000A0A0A07C004464544C4414141414141407
:102970000000000000000000000000000000000057
:10298000000000F8000000000000003330000000EC
:1029900000100C06100C06000000000000000000F3
:1029A00040C07840C0784000043F04043F04040065
:1029B000007088FC08300000001820FF211E000075
:1029C000F008F000E018000000211C031E211E008A
:1029D00000F00888700000001E2123241927211010
:1029E00010160E00000000000000000000000000B3
:1029F000000000E01804020000000007182040005A
:102A000000020418E0000000004020180700000049
:102A1000404080F0804040000202010F01020200AD
:102A2000000000F0000000000101011F0101010091
:102A3000000000000000000080B0700000000000F6
:102A4000000000000000000000010101010101017F
:102A50000000000000000000003030000000000016
:102A600000000000806018040060180601000000EB
:102A700000E010080810E000000F102020100F00E8
:102A8000001010F8000000000020203F202000006F
:102A900000700808088870000030282422213000C7
:102AA00000300888884830000018202020110E00CF
:102AB0000000C02010F8000000070424243F240078
:102AC00000F80888880808000019212020110E004D
:102AD00000E0108888180000000F112020110E005F
:102AE00000380808C83808000000003F0000000057
:102AF0000070880808887000001C222121221C0018
:102B000000E010080810E0000000312222110F0040
:102B1000000000C0C00000000000003030000000D5
:102B20000000008000000000000080600000000045
:102B3000000080402010080000010204081020005E
:102B400040404040404040000404040404040400A9
:102B5000000810204080000000201008040201003E
:102B6000007048080808F00000000030360100003E
:102B7000C030C828E810E0000718272423140B00F1
:102B80000000C038E0000000203C2302022738206B
:102B900008F8888888700000203F202020110E004F
:102BA000C030080808083800071820202010080046
:102BB00008F808080810E000203F202020100F002F
:102BC00008F88888E8081000203F202023201800FB
:102BD00008F88888E8081000203F20000300000063
:102BE000C03008080838000007182020221E020004
:102BF00008F808000008F808203F210101213F20C3
:102C0000000808F8080800000020203F20200000ED
:102C100000000808F8080800C08080807F000000DD
:102C200008F888C028180800203F20012638200016
:102C300008F8080000000000203F2020202030007D
:102C400008F8F800F8F80800203F003F003F200097
:102C500008F830C00008F808203F200007183F009F
:102C6000E01008080810E0000F10202020100F00CE
:102C700008F808080808F000203F210101010000C1
:102C8000E01008080810E0000F18242438504F0006
:102C900008F8888888887000203F2000030C3020C6
:102CA00000708808080838000038202121221C0004
:102CB000180808F8080818000000203F200000004D
:102CC00008F808000008F808001F202020201F0036
:102CD0000878880000C83808000007380E01000096
:102CE000F80800F80008F800033C0700073C030060
:102CF000081868808068180820302C03032C3020C6
:102D00000838C800C83808000000203F2000000034
:102D100010080808C838080020382621202018008C
:102D2000000000FE020202000000007F4040400060
:102D3000000C30C000000000000000010638C00098
:102D400000020202FE000000004040407F00000040
:102D50000000040202020400000000000000000065
:102D60000000000000000000808080808080808063
:102D7000000202040000000000000000000000004B
:102D800000008080808000000019242222223F2041
:102D900008F8008080000000003F112020110E0084
:102DA0000000008080800000000E11202020110013
:102DB000000000808088F800000E112020103F20C5
:102DC0000000808080800000001F22222222130049
:102DD000008080F0888888180020203F2020000094
:102DE0000000808080808000006B94949493600049
:102DF00008F8008080800000203F210000203F2054
:102E000000809898000000000020203F2020000053
:102E1000000000809898000000C08080807F000043
:102E200008F8000080808000203F24022D30200020
:102E3000000808F8000000000020203F20200000CB
:102E40008080808080808000203F20003F20003FE5
:102E50008080008080800000203F210000203F20F3
:102E60000000808080800000001F202020201F00A4
:102E7000808000808000000080FFA12020110E00D3
:102E80000000008080808000000E112020A0FF80C4
:102E9000808080008080800020203F212000010071
:102EA00000008080808080000033242424241900C6
:102EB000008080E0808000000000001F20200000D3
:102EC0008080000000808000001F202020103F2014
:102ED000808080000080808000010E3008060100A4
:102EE00080800080008080800F300C030C300F0049
:102EF00000808000808080000020312E0E31200074
:102F0000808080000080808080818E7018060100A3
:102F100000808080808080000021302C22213000C1
:102F200000000000807C020200000000003F4040E2
:102F300000000000FF00000000000000FF00000093
:102F40000002027C800000000040403F00000000C2
:102F5000000601010202040400000000000000005D
:102F6000802F0008000000205001000064060008C7
:102F700060300008500100204804000010210008C3
:102F8000126D12A510120201400172019A01B601E0
:102F9000DA0109022E026D12C21E160162018E12A2
:102FA0001808D201F6011B024A1412DE1C32014E2F
:102FB00028180AA201C601EE014202661412F13C71
:102FC000450186381AFE261C5302821412FD1A622D
:102FD0004C2924180A150242026F029E028A4E1CD6
:102FE0006A01AA261C0A0237261E8B02BA02A64EC6
:102FF0003C8601BE5E3A472629141A3A5E29261CF1
:1030000042025E2616B202F202C21A4E603AEE8404
:103010001A7A261ACE1412DE1A6A3A1AFE84492641
:1030200016DF020E03DE1A86AC7A12262706032A62
:10303000034C1D239A1A23E81723361523841223E1
:10304000D20F23200D236E0A23BC07230A056358E1
:10305000022D0102030404053406070809320100A9
:040000050800018965
:00000001FF
